{
  "contractName": "SimpleStorage",
  "abi": [
    {
      "constant": false,
      "inputs": [
        {
          "name": "x",
          "type": "uint256"
        }
      ],
      "name": "set",
      "outputs": [],
      "payable": false,
      "stateMutability": "nonpayable",
      "type": "function",
      "signature": "0x60fe47b1"
    },
    {
      "constant": true,
      "inputs": [],
      "name": "get",
      "outputs": [
        {
          "name": "",
          "type": "uint256"
        }
      ],
      "payable": false,
      "stateMutability": "view",
      "type": "function",
      "signature": "0x6d4ce63c"
    }
  ],
  "bytecode": "0x608060405234801561001057600080fd5b5060da8061001f6000396000f3fe6080604052348015600f57600080fd5b5060043610604f576000357c01000000000000000000000000000000000000000000000000000000009004806360fe47b11460545780636d4ce63c14607f575b600080fd5b607d60048036036020811015606857600080fd5b8101908080359060200190929190505050609b565b005b608560a5565b6040518082815260200191505060405180910390f35b8060008190555050565b6000805490509056fea165627a7a72305820c6b33a5e0d0cd981132d0de4993514f001fdb3826a00fcd2b4bc00ad45ea5cb20029",
  "source": "pragma solidity 0.5.2;\n\ncontract SimpleStorage {\n  uint storedHash;\n\n  function set(uint x) public {\n    storedHash = x;\n  }\n\n  function get() public view returns (uint) {\n    return storedHash;\n  }\n}\n",
  "sourcePath": "/Users/kuso/Desktop/Coding/Projects/Personal/ETH/dApps/IPFS-ReactJS/contracts/SimpleStorage.sol",
  "compiler": {
    "name": "solc",
    "version": "0.5.2+commit.1df8f40c.Emscripten.clang"
  },
  "schemaVersion": "3.0.1",
  "updatedAt": "2019-02-11T15:51:12.750Z",
  "devdoc": {
    "methods": {}
  },
  "userdoc": {
    "methods": {}
  }
}